{
  "_format": "hh-sol-artifact-1",
  "contractName": "TokenSwap",
  "sourceName": "contracts/TokenSwap.sol",
  "abi": [
    {
      "inputs": [
        {
          "internalType": "address",
          "name": "_token1",
          "type": "address"
        },
        {
          "internalType": "address",
          "name": "_owner1",
          "type": "address"
        },
        {
          "internalType": "uint256",
          "name": "_amount1",
          "type": "uint256"
        },
        {
          "internalType": "address",
          "name": "_token2",
          "type": "address"
        },
        {
          "internalType": "address",
          "name": "_owner2",
          "type": "address"
        },
        {
          "internalType": "uint256",
          "name": "_amount2",
          "type": "uint256"
        }
      ],
      "stateMutability": "nonpayable",
      "type": "constructor"
    },
    {
      "inputs": [],
      "name": "amount1",
      "outputs": [
        {
          "internalType": "uint256",
          "name": "",
          "type": "uint256"
        }
      ],
      "stateMutability": "view",
      "type": "function"
    },
    {
      "inputs": [],
      "name": "amount2",
      "outputs": [
        {
          "internalType": "uint256",
          "name": "",
          "type": "uint256"
        }
      ],
      "stateMutability": "view",
      "type": "function"
    },
    {
      "inputs": [],
      "name": "owner1",
      "outputs": [
        {
          "internalType": "address",
          "name": "",
          "type": "address"
        }
      ],
      "stateMutability": "view",
      "type": "function"
    },
    {
      "inputs": [],
      "name": "owner2",
      "outputs": [
        {
          "internalType": "address",
          "name": "",
          "type": "address"
        }
      ],
      "stateMutability": "view",
      "type": "function"
    },
    {
      "inputs": [],
      "name": "swap",
      "outputs": [],
      "stateMutability": "nonpayable",
      "type": "function"
    },
    {
      "inputs": [],
      "name": "token1",
      "outputs": [
        {
          "internalType": "contract IERC20",
          "name": "",
          "type": "address"
        }
      ],
      "stateMutability": "view",
      "type": "function"
    },
    {
      "inputs": [],
      "name": "token2",
      "outputs": [
        {
          "internalType": "contract IERC20",
          "name": "",
          "type": "address"
        }
      ],
      "stateMutability": "view",
      "type": "function"
    }
  ],
  "bytecode": "0x608060405234801561001057600080fd5b506040516105e83803806105e883398101604081905261002f916100a7565b600080546001600160a01b03199081166001600160a01b0398891617909155600180548216968816969096179095556002939093556003805485169286169290921790915560048054909316931692909217905560055561010d565b80516001600160a01b03811681146100a257600080fd5b919050565b60008060008060008060c087890312156100c057600080fd5b6100c98761008b565b95506100d76020880161008b565b9450604087015193506100ec6060880161008b565b92506100fa6080880161008b565b915060a087015190509295509295509295565b6104cc8061011c6000396000f3fe608060405234801561001057600080fd5b506004361061007d5760003560e01c8063736889141161005b57806373688914146100dc5780638119c065146100ef578063d21220a7146100f9578063f400fde41461010c57600080fd5b8063057bfcc71461008257806325be124e1461009e57806352709725146100c9575b600080fd5b61008b60055481565b6040519081526020015b60405180910390f35b6003546100b1906001600160a01b031681565b6040516001600160a01b039091168152602001610095565b6004546100b1906001600160a01b031681565b6001546100b1906001600160a01b031681565b6100f7610115565b005b6000546100b1906001600160a01b031681565b61008b60025481565b6001546001600160a01b031633148061013857506004546001600160a01b031633145b61017a5760405162461bcd60e51b815260206004820152600e60248201526d139bdd08185d5d1a1bdc9a5e995960921b60448201526064015b60405180910390fd5b600254600054600154604051636eb1769f60e11b81526001600160a01b03918216600482015230602482015291169063dd62ed3e9060440160206040518083038186803b1580156101ca57600080fd5b505afa1580156101de573d6000803e3d6000fd5b505050506040513d601f19601f820116820180604052508101906102029190610454565b10156102505760405162461bcd60e51b815260206004820152601960248201527f546f6b656e203120616c6c6f77616e636520746f6f206c6f77000000000000006044820152606401610171565b60055460035460048054604051636eb1769f60e11b81526001600160a01b03918216928101929092523060248301529091169063dd62ed3e9060440160206040518083038186803b1580156102a457600080fd5b505afa1580156102b8573d6000803e3d6000fd5b505050506040513d601f19601f820116820180604052508101906102dc9190610454565b101561032a5760405162461bcd60e51b815260206004820152601960248201527f546f6b656e203220616c6c6f77616e636520746f6f206c6f77000000000000006044820152606401610171565b600054600154600454600254610350936001600160a01b03908116938116921690610378565b600354600454600154600554610376936001600160a01b03908116938116921690610378565b565b6040516323b872dd60e01b81526001600160a01b038481166004830152838116602483015260448201839052600091908616906323b872dd90606401602060405180830381600087803b1580156103ce57600080fd5b505af11580156103e2573d6000803e3d6000fd5b505050506040513d601f19601f82011682018060405250810190610406919061046d565b90508061044d5760405162461bcd60e51b8152602060048201526015602482015274151bdad95b881d1c985b9cd9995c8819985a5b1959605a1b6044820152606401610171565b5050505050565b60006020828403121561046657600080fd5b5051919050565b60006020828403121561047f57600080fd5b8151801515811461048f57600080fd5b939250505056fea2646970667358221220e979c814b85f0f798d847b81079273f08ea2b434f0bd4a1cb53cc5c96aff881f64736f6c63430008090033",
  "linkReferences": {},
  "deployedLinkReferences": {}
}